{
  "address": "0xE1FD90113BEC51E13a9992A4FBeE4Df649Ce72b1",
  "abi": [
    {
      "inputs": [
        {
          "internalType": "address",
          "name": "vrfCoordinatorV2",
          "type": "address"
        },
        {
          "internalType": "uint64",
          "name": "subscriptionId",
          "type": "uint64"
        },
        {
          "internalType": "bytes32",
          "name": "gasLance",
          "type": "bytes32"
        },
        {
          "internalType": "uint32",
          "name": "callbackGasLimit",
          "type": "uint32"
        },
        {
          "internalType": "string[3]",
          "name": "dogTokenUris",
          "type": "string[3]"
        },
        {
          "internalType": "uint256",
          "name": "mintFee",
          "type": "uint256"
        }
      ],
      "stateMutability": "nonpayable",
      "type": "constructor"
    },
    {
      "inputs": [
        {
          "internalType": "address",
          "name": "have",
          "type": "address"
        },
        {
          "internalType": "address",
          "name": "want",
          "type": "address"
        }
      ],
      "name": "OnlyCoordinatorCanFulfill",
      "type": "error"
    },
    {
      "inputs": [],
      "name": "RandomIpfsNft__NeedMoreETHSent",
      "type": "error"
    },
    {
      "inputs": [],
      "name": "RandomIpfsNft__RangeOutOfBounds",
      "type": "error"
    },
    {
      "inputs": [],
      "name": "RandomIpfsNft__TransferFailed",
      "type": "error"
    },
    {
      "anonymous": false,
      "inputs": [
        {
          "indexed": true,
          "internalType": "address",
          "name": "owner",
          "type": "address"
        },
        {
          "indexed": true,
          "internalType": "address",
          "name": "approved",
          "type": "address"
        },
        {
          "indexed": true,
          "internalType": "uint256",
          "name": "tokenId",
          "type": "uint256"
        }
      ],
      "name": "Approval",
      "type": "event"
    },
    {
      "anonymous": false,
      "inputs": [
        {
          "indexed": true,
          "internalType": "address",
          "name": "owner",
          "type": "address"
        },
        {
          "indexed": true,
          "internalType": "address",
          "name": "operator",
          "type": "address"
        },
        {
          "indexed": false,
          "internalType": "bool",
          "name": "approved",
          "type": "bool"
        }
      ],
      "name": "ApprovalForAll",
      "type": "event"
    },
    {
      "anonymous": false,
      "inputs": [
        {
          "indexed": false,
          "internalType": "enum RandomIpfsNft.Breed",
          "name": "dogBread",
          "type": "uint8"
        },
        {
          "indexed": false,
          "internalType": "address",
          "name": "minter",
          "type": "address"
        }
      ],
      "name": "NftMinted",
      "type": "event"
    },
    {
      "anonymous": false,
      "inputs": [
        {
          "indexed": true,
          "internalType": "uint256",
          "name": "requestId",
          "type": "uint256"
        },
        {
          "indexed": false,
          "internalType": "address",
          "name": "requester",
          "type": "address"
        }
      ],
      "name": "NftRequested",
      "type": "event"
    },
    {
      "anonymous": false,
      "inputs": [
        {
          "indexed": true,
          "internalType": "address",
          "name": "previousOwner",
          "type": "address"
        },
        {
          "indexed": true,
          "internalType": "address",
          "name": "newOwner",
          "type": "address"
        }
      ],
      "name": "OwnershipTransferred",
      "type": "event"
    },
    {
      "anonymous": false,
      "inputs": [
        {
          "indexed": true,
          "internalType": "address",
          "name": "from",
          "type": "address"
        },
        {
          "indexed": true,
          "internalType": "address",
          "name": "to",
          "type": "address"
        },
        {
          "indexed": true,
          "internalType": "uint256",
          "name": "tokenId",
          "type": "uint256"
        }
      ],
      "name": "Transfer",
      "type": "event"
    },
    {
      "inputs": [
        {
          "internalType": "address",
          "name": "to",
          "type": "address"
        },
        {
          "internalType": "uint256",
          "name": "tokenId",
          "type": "uint256"
        }
      ],
      "name": "approve",
      "outputs": [],
      "stateMutability": "nonpayable",
      "type": "function"
    },
    {
      "inputs": [
        {
          "internalType": "address",
          "name": "owner",
          "type": "address"
        }
      ],
      "name": "balanceOf",
      "outputs": [
        {
          "internalType": "uint256",
          "name": "",
          "type": "uint256"
        }
      ],
      "stateMutability": "view",
      "type": "function"
    },
    {
      "inputs": [
        {
          "internalType": "uint256",
          "name": "tokenId",
          "type": "uint256"
        }
      ],
      "name": "getApproved",
      "outputs": [
        {
          "internalType": "address",
          "name": "",
          "type": "address"
        }
      ],
      "stateMutability": "view",
      "type": "function"
    },
    {
      "inputs": [
        {
          "internalType": "uint256",
          "name": "moddedRng",
          "type": "uint256"
        }
      ],
      "name": "getBreedFromModdedRng",
      "outputs": [
        {
          "internalType": "enum RandomIpfsNft.Breed",
          "name": "",
          "type": "uint8"
        }
      ],
      "stateMutability": "pure",
      "type": "function"
    },
    {
      "inputs": [],
      "name": "getCallbackGasLimit",
      "outputs": [
        {
          "internalType": "uint32",
          "name": "",
          "type": "uint32"
        }
      ],
      "stateMutability": "view",
      "type": "function"
    },
    {
      "inputs": [],
      "name": "getChanceArray",
      "outputs": [
        {
          "internalType": "uint256[3]",
          "name": "",
          "type": "uint256[3]"
        }
      ],
      "stateMutability": "pure",
      "type": "function"
    },
    {
      "inputs": [
        {
          "internalType": "uint256",
          "name": "index",
          "type": "uint256"
        }
      ],
      "name": "getDogTokenUris",
      "outputs": [
        {
          "internalType": "string",
          "name": "",
          "type": "string"
        }
      ],
      "stateMutability": "view",
      "type": "function"
    },
    {
      "inputs": [],
      "name": "getGasLane",
      "outputs": [
        {
          "internalType": "bytes32",
          "name": "",
          "type": "bytes32"
        }
      ],
      "stateMutability": "view",
      "type": "function"
    },
    {
      "inputs": [],
      "name": "getMintFee",
      "outputs": [
        {
          "internalType": "uint256",
          "name": "",
          "type": "uint256"
        }
      ],
      "stateMutability": "view",
      "type": "function"
    },
    {
      "inputs": [],
      "name": "getTokenCounter",
      "outputs": [
        {
          "internalType": "uint256",
          "name": "",
          "type": "uint256"
        }
      ],
      "stateMutability": "view",
      "type": "function"
    },
    {
      "inputs": [
        {
          "internalType": "address",
          "name": "owner",
          "type": "address"
        },
        {
          "internalType": "address",
          "name": "operator",
          "type": "address"
        }
      ],
      "name": "isApprovedForAll",
      "outputs": [
        {
          "internalType": "bool",
          "name": "",
          "type": "bool"
        }
      ],
      "stateMutability": "view",
      "type": "function"
    },
    {
      "inputs": [],
      "name": "name",
      "outputs": [
        {
          "internalType": "string",
          "name": "",
          "type": "string"
        }
      ],
      "stateMutability": "view",
      "type": "function"
    },
    {
      "inputs": [],
      "name": "owner",
      "outputs": [
        {
          "internalType": "address",
          "name": "",
          "type": "address"
        }
      ],
      "stateMutability": "view",
      "type": "function"
    },
    {
      "inputs": [
        {
          "internalType": "uint256",
          "name": "tokenId",
          "type": "uint256"
        }
      ],
      "name": "ownerOf",
      "outputs": [
        {
          "internalType": "address",
          "name": "",
          "type": "address"
        }
      ],
      "stateMutability": "view",
      "type": "function"
    },
    {
      "inputs": [
        {
          "internalType": "uint256",
          "name": "requestId",
          "type": "uint256"
        },
        {
          "internalType": "uint256[]",
          "name": "randomWords",
          "type": "uint256[]"
        }
      ],
      "name": "rawFulfillRandomWords",
      "outputs": [],
      "stateMutability": "nonpayable",
      "type": "function"
    },
    {
      "inputs": [],
      "name": "renounceOwnership",
      "outputs": [],
      "stateMutability": "nonpayable",
      "type": "function"
    },
    {
      "inputs": [],
      "name": "requestNft",
      "outputs": [
        {
          "internalType": "uint256",
          "name": "requestId",
          "type": "uint256"
        }
      ],
      "stateMutability": "payable",
      "type": "function"
    },
    {
      "inputs": [
        {
          "internalType": "uint256",
          "name": "",
          "type": "uint256"
        }
      ],
      "name": "s_requestIdToSender",
      "outputs": [
        {
          "internalType": "address",
          "name": "",
          "type": "address"
        }
      ],
      "stateMutability": "view",
      "type": "function"
    },
    {
      "inputs": [],
      "name": "s_tokenCounter",
      "outputs": [
        {
          "internalType": "uint256",
          "name": "",
          "type": "uint256"
        }
      ],
      "stateMutability": "view",
      "type": "function"
    },
    {
      "inputs": [
        {
          "internalType": "address",
          "name": "from",
          "type": "address"
        },
        {
          "internalType": "address",
          "name": "to",
          "type": "address"
        },
        {
          "internalType": "uint256",
          "name": "tokenId",
          "type": "uint256"
        }
      ],
      "name": "safeTransferFrom",
      "outputs": [],
      "stateMutability": "nonpayable",
      "type": "function"
    },
    {
      "inputs": [
        {
          "internalType": "address",
          "name": "from",
          "type": "address"
        },
        {
          "internalType": "address",
          "name": "to",
          "type": "address"
        },
        {
          "internalType": "uint256",
          "name": "tokenId",
          "type": "uint256"
        },
        {
          "internalType": "bytes",
          "name": "data",
          "type": "bytes"
        }
      ],
      "name": "safeTransferFrom",
      "outputs": [],
      "stateMutability": "nonpayable",
      "type": "function"
    },
    {
      "inputs": [
        {
          "internalType": "address",
          "name": "operator",
          "type": "address"
        },
        {
          "internalType": "bool",
          "name": "approved",
          "type": "bool"
        }
      ],
      "name": "setApprovalForAll",
      "outputs": [],
      "stateMutability": "nonpayable",
      "type": "function"
    },
    {
      "inputs": [
        {
          "internalType": "bytes4",
          "name": "interfaceId",
          "type": "bytes4"
        }
      ],
      "name": "supportsInterface",
      "outputs": [
        {
          "internalType": "bool",
          "name": "",
          "type": "bool"
        }
      ],
      "stateMutability": "view",
      "type": "function"
    },
    {
      "inputs": [],
      "name": "symbol",
      "outputs": [
        {
          "internalType": "string",
          "name": "",
          "type": "string"
        }
      ],
      "stateMutability": "view",
      "type": "function"
    },
    {
      "inputs": [
        {
          "internalType": "uint256",
          "name": "tokenId",
          "type": "uint256"
        }
      ],
      "name": "tokenURI",
      "outputs": [
        {
          "internalType": "string",
          "name": "",
          "type": "string"
        }
      ],
      "stateMutability": "view",
      "type": "function"
    },
    {
      "inputs": [
        {
          "internalType": "address",
          "name": "from",
          "type": "address"
        },
        {
          "internalType": "address",
          "name": "to",
          "type": "address"
        },
        {
          "internalType": "uint256",
          "name": "tokenId",
          "type": "uint256"
        }
      ],
      "name": "transferFrom",
      "outputs": [],
      "stateMutability": "nonpayable",
      "type": "function"
    },
    {
      "inputs": [
        {
          "internalType": "address",
          "name": "newOwner",
          "type": "address"
        }
      ],
      "name": "transferOwnership",
      "outputs": [],
      "stateMutability": "nonpayable",
      "type": "function"
    },
    {
      "inputs": [],
      "name": "withdraw",
      "outputs": [],
      "stateMutability": "nonpayable",
      "type": "function"
    }
  ],
  "transactionHash": "0x4e1ae946340be829fb8c43bd93b765bdb50b8d4517654b65ed0417877fa02863",
  "args": [
    "0x6168499c0cFfCaCD319c818142124B7A15E857ab",
    "14473",
    "0xd89b2bf150e3b9e13446986e571fb9cab24b13cea0a43ea20a6049a85cc807cc",
    "500000",
    [
      "ipfs://QmPsddgwx2s4HE5V9so61eSR3NfGgJMkHgpTRBw1jnmTrH",
      "ipfs://QmYzrvrN5pSqx19qXUCvJm4uau1rcpytPJGzzBkJQDdv82",
      "ipfs://QmPU6NzQQFJKWJ6MukigvnU4D2GWTvcTtSqQu1U735UNqV"
    ],
    "10000000000000000"
  ],
  "numDeployments": 1,
  "solcInputHash": "44495bcaa8cb129555fe00a993e6071e",
  "bytecode": "0x6101406040523480156200001257600080fd5b506040516200443b3803806200443b83398181016040528101906200003891906200080b565b6040518060400160405280600f81526020017f52616e646f6d2049504653204e465400000000000000000000000000000000008152506040518060400160405280600381526020017f52494e0000000000000000000000000000000000000000000000000000000000815250878073ffffffffffffffffffffffffffffffffffffffff1660808173ffffffffffffffffffffffffffffffffffffffff1660601b81525050508160009080519060200190620000f59291906200029e565b5080600190805190602001906200010e9291906200029e565b5050506200013162000125620001d060201b60201c565b620001d860201b60201c565b8573ffffffffffffffffffffffffffffffffffffffff1660a08173ffffffffffffffffffffffffffffffffffffffff1660601b815250508467ffffffffffffffff1660c08167ffffffffffffffff1660c01b815250508360e081815250508263ffffffff166101008163ffffffff1660e01b8152505080610120818152505081600a906003620001c39291906200032f565b505050505050506200092b565b600033905090565b6000600760009054906101000a900473ffffffffffffffffffffffffffffffffffffffff16905081600760006101000a81548173ffffffffffffffffffffffffffffffffffffffff021916908373ffffffffffffffffffffffffffffffffffffffff1602179055508173ffffffffffffffffffffffffffffffffffffffff168173ffffffffffffffffffffffffffffffffffffffff167f8be0079c531659141344cd1fd0a4f28419497f9722a3daafe3b4186f6b6457e060405160405180910390a35050565b828054620002ac90620008f5565b90600052602060002090601f016020900481019282620002d057600085556200031c565b82601f10620002eb57805160ff19168380011785556200031c565b828001600101855582156200031c579182015b828111156200031b578251825591602001919060010190620002fe565b5b5090506200032b919062000396565b5090565b82805482825590600052602060002090810192821562000383579160200282015b8281111562000382578251829080519060200190620003719291906200029e565b509160200191906001019062000350565b5b509050620003929190620003b5565b5090565b5b80821115620003b157600081600090555060010162000397565b5090565b5b80821115620003d95760008181620003cf9190620003dd565b50600101620003b6565b5090565b508054620003eb90620008f5565b6000825580601f10620003ff575062000420565b601f0160209004906000526020600020908101906200041f919062000396565b5b50565b6000604051905090565b600080fd5b600080fd5b600073ffffffffffffffffffffffffffffffffffffffff82169050919050565b6000620004648262000437565b9050919050565b620004768162000457565b81146200048257600080fd5b50565b60008151905062000496816200046b565b92915050565b600067ffffffffffffffff82169050919050565b620004bb816200049c565b8114620004c757600080fd5b50565b600081519050620004db81620004b0565b92915050565b6000819050919050565b620004f681620004e1565b81146200050257600080fd5b50565b6000815190506200051681620004eb565b92915050565b600063ffffffff82169050919050565b62000537816200051c565b81146200054357600080fd5b50565b60008151905062000557816200052c565b92915050565b600080fd5b6000601f19601f8301169050919050565b7f4e487b7100000000000000000000000000000000000000000000000000000000600052604160045260246000fd5b620005ad8262000562565b810181811067ffffffffffffffff82111715620005cf57620005ce62000573565b5b80604052505050565b6000620005e462000423565b9050620005f28282620005a2565b919050565b600067ffffffffffffffff82111562000615576200061462000573565b5b602082029050919050565b600080fd5b600080fd5b600067ffffffffffffffff82111562000648576200064762000573565b5b620006538262000562565b9050602081019050919050565b60005b838110156200068057808201518184015260208101905062000663565b8381111562000690576000848401525b50505050565b6000620006ad620006a7846200062a565b620005d8565b905082815260208101848484011115620006cc57620006cb62000625565b5b620006d984828562000660565b509392505050565b600082601f830112620006f957620006f86200055d565b5b81516200070b84826020860162000696565b91505092915050565b60006200072b6200072584620005f7565b620005d8565b9050806020840283018581111562000748576200074762000620565b5b835b818110156200079657805167ffffffffffffffff8111156200077157620007706200055d565b5b808601620007808982620006e1565b855260208501945050506020810190506200074a565b5050509392505050565b600082601f830112620007b857620007b76200055d565b5b6003620007c784828562000714565b91505092915050565b6000819050919050565b620007e581620007d0565b8114620007f157600080fd5b50565b6000815190506200080581620007da565b92915050565b60008060008060008060c087890312156200082b576200082a6200042d565b5b60006200083b89828a0162000485565b96505060206200084e89828a01620004ca565b95505060406200086189828a0162000505565b94505060606200087489828a0162000546565b935050608087015167ffffffffffffffff81111562000898576200089762000432565b5b620008a689828a01620007a0565b92505060a0620008b989828a01620007f4565b9150509295509295509295565b7f4e487b7100000000000000000000000000000000000000000000000000000000600052602260045260246000fd5b600060028204905060018216806200090e57607f821691505b60208210811415620009255762000924620008c6565b5b50919050565b60805160601c60a05160601c60c05160c01c60e0516101005160e01c61012051613a98620009a360003960008181610e0201526110110152600081816110eb01526113ae0152600081816110a70152611273015260006110c80152600061106b0152600081816109a901526109fd0152613a986000f3fe6080604052600436106101b75760003560e01c8063715018a6116100ec578063aa1524911161008a578063c87b56dd11610064578063c87b56dd14610601578063de8be8e71461063e578063e985e9c514610669578063f2fde38b146106a6576101b7565b8063aa1524911461058f578063b88d4fde146105ad578063c19dd76b146105d6576101b7565b806395d89b41116100c657806395d89b41146104c1578063a22cb465146104ec578063a36f573b14610515578063a51cccf314610552576101b7565b8063715018a6146104545780637a5caab31461046b5780638da5cb5b14610496576101b7565b80633af25975116101595780635dacf5f4116101335780635dacf5f4146103845780636352211e146103af5780636e02007d146103ec57806370a0823114610417576101b7565b80633af25975146103075780633ccfd60b1461034457806342842e0e1461035b576101b7565b8063095ea7b311610195578063095ea7b3146102615780630b21a83b1461028a5780631fe543e3146102b557806323b872dd146102de576101b7565b806301ffc9a7146101bc57806306fdde03146101f9578063081812fc14610224575b600080fd5b3480156101c857600080fd5b506101e360048036038101906101de9190612610565b6106cf565b6040516101f09190612658565b60405180910390f35b34801561020557600080fd5b5061020e6107b1565b60405161021b919061270c565b60405180910390f35b34801561023057600080fd5b5061024b60048036038101906102469190612764565b610843565b60405161025891906127d2565b60405180910390f35b34801561026d57600080fd5b5061028860048036038101906102839190612819565b610889565b005b34801561029657600080fd5b5061029f6109a1565b6040516102ac9190612868565b60405180910390f35b3480156102c157600080fd5b506102dc60048036038101906102d791906129cb565b6109a7565b005b3480156102ea57600080fd5b5061030560048036038101906103009190612a27565b610a67565b005b34801561031357600080fd5b5061032e60048036038101906103299190612764565b610ac7565b60405161033b919061270c565b60405180910390f35b34801561035057600080fd5b50610359610b77565b005b34801561036757600080fd5b50610382600480360381019061037d9190612a27565b610c2b565b005b34801561039057600080fd5b50610399610c4b565b6040516103a69190612b25565b60405180910390f35b3480156103bb57600080fd5b506103d660048036038101906103d19190612764565b610c76565b6040516103e391906127d2565b60405180910390f35b3480156103f857600080fd5b50610401610d28565b60405161040e9190612868565b60405180910390f35b34801561042357600080fd5b5061043e60048036038101906104399190612b40565b610d32565b60405161044b9190612868565b60405180910390f35b34801561046057600080fd5b50610469610dea565b005b34801561047757600080fd5b50610480610dfe565b60405161048d9190612868565b60405180910390f35b3480156104a257600080fd5b506104ab610e26565b6040516104b891906127d2565b60405180910390f35b3480156104cd57600080fd5b506104d6610e50565b6040516104e3919061270c565b60405180910390f35b3480156104f857600080fd5b50610513600480360381019061050e9190612b99565b610ee2565b005b34801561052157600080fd5b5061053c60048036038101906105379190612764565b610ef8565b60405161054991906127d2565b60405180910390f35b34801561055e57600080fd5b5061057960048036038101906105749190612764565b610f2b565b6040516105869190612c50565b60405180910390f35b61059761100d565b6040516105a49190612868565b60405180910390f35b3480156105b957600080fd5b506105d460048036038101906105cf9190612d20565b61120d565b005b3480156105e257600080fd5b506105eb61126f565b6040516105f89190612dbc565b60405180910390f35b34801561060d57600080fd5b5061062860048036038101906106239190612764565b611297565b604051610635919061270c565b60405180910390f35b34801561064a57600080fd5b506106536113aa565b6040516106609190612df6565b60405180910390f35b34801561067557600080fd5b50610690600480360381019061068b9190612e11565b6113d2565b60405161069d9190612658565b60405180910390f35b3480156106b257600080fd5b506106cd60048036038101906106c89190612b40565b611466565b005b60007f80ac58cd000000000000000000000000000000000000000000000000000000007bffffffffffffffffffffffffffffffffffffffffffffffffffffffff1916827bffffffffffffffffffffffffffffffffffffffffffffffffffffffff1916148061079a57507f5b5e139f000000000000000000000000000000000000000000000000000000007bffffffffffffffffffffffffffffffffffffffffffffffffffffffff1916827bffffffffffffffffffffffffffffffffffffffffffffffffffffffff1916145b806107aa57506107a9826114ea565b5b9050919050565b6060600080546107c090612e80565b80601f01602080910402602001604051908101604052809291908181526020018280546107ec90612e80565b80156108395780601f1061080e57610100808354040283529160200191610839565b820191906000526020600020905b81548152906001019060200180831161081c57829003601f168201915b5050505050905090565b600061084e82611554565b6004600083815260200190815260200160002060009054906101000a900473ffffffffffffffffffffffffffffffffffffffff169050919050565b600061089482610c76565b90508073ffffffffffffffffffffffffffffffffffffffff168373ffffffffffffffffffffffffffffffffffffffff161415610905576040517f08c379a00000000000000000000000000000000000000000000000000000000081526004016108fc90612f24565b60405180910390fd5b8073ffffffffffffffffffffffffffffffffffffffff1661092461159f565b73ffffffffffffffffffffffffffffffffffffffff16148061095357506109528161094d61159f565b6113d2565b5b610992576040517f08c379a000000000000000000000000000000000000000000000000000000000815260040161098990612fb6565b60405180910390fd5b61099c83836115a7565b505050565b60095481565b7f000000000000000000000000000000000000000000000000000000000000000073ffffffffffffffffffffffffffffffffffffffff163373ffffffffffffffffffffffffffffffffffffffff1614610a5957337f00000000000000000000000000000000000000000000000000000000000000006040517f1cf993f4000000000000000000000000000000000000000000000000000000008152600401610a50929190612fd6565b60405180910390fd5b610a638282611660565b5050565b610a78610a7261159f565b826117ff565b610ab7576040517f08c379a0000000000000000000000000000000000000000000000000000000008152600401610aae90613071565b60405180910390fd5b610ac2838383611894565b505050565b6060600a8281548110610add57610adc613091565b5b906000526020600020018054610af290612e80565b80601f0160208091040260200160405190810160405280929190818152602001828054610b1e90612e80565b8015610b6b5780601f10610b4057610100808354040283529160200191610b6b565b820191906000526020600020905b815481529060010190602001808311610b4e57829003601f168201915b50505050509050919050565b610b7f611afb565b600047905060003373ffffffffffffffffffffffffffffffffffffffff1682604051610baa906130f1565b60006040518083038185875af1925050503d8060008114610be7576040519150601f19603f3d011682016040523d82523d6000602084013e610bec565b606091505b5050905080610c27576040517fca7e25b700000000000000000000000000000000000000000000000000000000815260040160405180910390fd5b5050565b610c468383836040518060200160405280600081525061120d565b505050565b610c536124df565b6040518060600160405280600a8152602001601e81526020016064815250905090565b6000806002600084815260200190815260200160002060009054906101000a900473ffffffffffffffffffffffffffffffffffffffff169050600073ffffffffffffffffffffffffffffffffffffffff168173ffffffffffffffffffffffffffffffffffffffff161415610d1f576040517f08c379a0000000000000000000000000000000000000000000000000000000008152600401610d1690613152565b60405180910390fd5b80915050919050565b6000600954905090565b60008073ffffffffffffffffffffffffffffffffffffffff168273ffffffffffffffffffffffffffffffffffffffff161415610da3576040517f08c379a0000000000000000000000000000000000000000000000000000000008152600401610d9a906131e4565b60405180910390fd5b600360008373ffffffffffffffffffffffffffffffffffffffff1673ffffffffffffffffffffffffffffffffffffffff168152602001908152602001600020549050919050565b610df2611afb565b610dfc6000611b79565b565b60007f0000000000000000000000000000000000000000000000000000000000000000905090565b6000600760009054906101000a900473ffffffffffffffffffffffffffffffffffffffff16905090565b606060018054610e5f90612e80565b80601f0160208091040260200160405190810160405280929190818152602001828054610e8b90612e80565b8015610ed85780601f10610ead57610100808354040283529160200191610ed8565b820191906000526020600020905b815481529060010190602001808311610ebb57829003601f168201915b5050505050905090565b610ef4610eed61159f565b8383611c3f565b5050565b60086020528060005260406000206000915054906101000a900473ffffffffffffffffffffffffffffffffffffffff1681565b600080600090506000610f3c610c4b565b905060005b6003811015610fd557828510158015610f7b5750818160038110610f6857610f67613091565b5b602002015183610f789190613233565b85105b15610f9d57806002811115610f9357610f92612bd9565b5b9350505050611008565b818160038110610fb057610faf613091565b5b602002015183610fc09190613233565b92508080610fcd90613289565b915050610f41565b506040517f12806c9d00000000000000000000000000000000000000000000000000000000815260040160405180910390fd5b919050565b60007f0000000000000000000000000000000000000000000000000000000000000000341015611069576040517fb90f491000000000000000000000000000000000000000000000000000000000815260040160405180910390fd5b7f000000000000000000000000000000000000000000000000000000000000000073ffffffffffffffffffffffffffffffffffffffff16635d3b1d307f00000000000000000000000000000000000000000000000000000000000000007f000000000000000000000000000000000000000000000000000000000000000060037f000000000000000000000000000000000000000000000000000000000000000060016040518663ffffffff1660e01b815260040161112c959493929190613312565b602060405180830381600087803b15801561114657600080fd5b505af115801561115a573d6000803e3d6000fd5b505050506040513d601f19601f8201168201806040525081019061117e919061337a565b9050336008600083815260200190815260200160002060006101000a81548173ffffffffffffffffffffffffffffffffffffffff021916908373ffffffffffffffffffffffffffffffffffffffff160217905550807ff873236e6cc0ecc5be1a9a35c95ee5b8d1ac4cc7bfef0cc5060391d6cc98e26b3360405161120291906127d2565b60405180910390a290565b61121e61121861159f565b836117ff565b61125d576040517f08c379a000000000000000000000000000000000000000000000000000000000815260040161125490613071565b60405180910390fd5b61126984848484611dac565b50505050565b60007f0000000000000000000000000000000000000000000000000000000000000000905090565b60606112a282611554565b60006006600084815260200190815260200160002080546112c290612e80565b80601f01602080910402602001604051908101604052809291908181526020018280546112ee90612e80565b801561133b5780601f106113105761010080835404028352916020019161133b565b820191906000526020600020905b81548152906001019060200180831161131e57829003601f168201915b50505050509050600061134c611e08565b90506000815114156113625781925050506113a5565b60008251111561139757808260405160200161137f9291906133e3565b604051602081830303815290604052925050506113a5565b6113a084611e1f565b925050505b919050565b60007f0000000000000000000000000000000000000000000000000000000000000000905090565b6000600560008473ffffffffffffffffffffffffffffffffffffffff1673ffffffffffffffffffffffffffffffffffffffff16815260200190815260200160002060008373ffffffffffffffffffffffffffffffffffffffff1673ffffffffffffffffffffffffffffffffffffffff16815260200190815260200160002060009054906101000a900460ff16905092915050565b61146e611afb565b600073ffffffffffffffffffffffffffffffffffffffff168173ffffffffffffffffffffffffffffffffffffffff1614156114de576040517f08c379a00000000000000000000000000000000000000000000000000000000081526004016114d590613479565b60405180910390fd5b6114e781611b79565b50565b60007f01ffc9a7000000000000000000000000000000000000000000000000000000007bffffffffffffffffffffffffffffffffffffffffffffffffffffffff1916827bffffffffffffffffffffffffffffffffffffffffffffffffffffffff1916149050919050565b61155d81611e87565b61159c576040517f08c379a000000000000000000000000000000000000000000000000000000000815260040161159390613152565b60405180910390fd5b50565b600033905090565b816004600083815260200190815260200160002060006101000a81548173ffffffffffffffffffffffffffffffffffffffff021916908373ffffffffffffffffffffffffffffffffffffffff160217905550808273ffffffffffffffffffffffffffffffffffffffff1661161a83610c76565b73ffffffffffffffffffffffffffffffffffffffff167f8c5be1e5ebec7d5bd14f71427d1e84f3dd0314c0f7b2291e5b200ac8c7c3b92560405160405180910390a45050565b60006008600084815260200190815260200160002060009054906101000a900473ffffffffffffffffffffffffffffffffffffffff1690506000600954905060006064846000815181106116b7576116b6613091565b5b60200260200101516116c991906134c8565b905060006116d682610f2b565b90506001600960008282546116eb9190613233565b925050819055506116fc8484611ef3565b6117be83600a83600281111561171557611714612bd9565b5b8154811061172657611725613091565b5b90600052602060002001805461173b90612e80565b80601f016020809104026020016040519081016040528092919081815260200182805461176790612e80565b80156117b45780601f10611789576101008083540402835291602001916117b4565b820191906000526020600020905b81548152906001019060200180831161179757829003601f168201915b5050505050611f11565b7f8a269f26b688e110e9cbd887d163dab35cae678fa353a0292de532c0cac1ecdc81856040516117ef9291906134f9565b60405180910390a1505050505050565b60008061180b83610c76565b90508073ffffffffffffffffffffffffffffffffffffffff168473ffffffffffffffffffffffffffffffffffffffff16148061184d575061184c81856113d2565b5b8061188b57508373ffffffffffffffffffffffffffffffffffffffff1661187384610843565b73ffffffffffffffffffffffffffffffffffffffff16145b91505092915050565b8273ffffffffffffffffffffffffffffffffffffffff166118b482610c76565b73ffffffffffffffffffffffffffffffffffffffff161461190a576040517f08c379a000000000000000000000000000000000000000000000000000000000815260040161190190613594565b60405180910390fd5b600073ffffffffffffffffffffffffffffffffffffffff168273ffffffffffffffffffffffffffffffffffffffff16141561197a576040517f08c379a000000000000000000000000000000000000000000000000000000000815260040161197190613626565b60405180910390fd5b611985838383611f85565b6119906000826115a7565b6001600360008573ffffffffffffffffffffffffffffffffffffffff1673ffffffffffffffffffffffffffffffffffffffff16815260200190815260200160002060008282546119e09190613646565b925050819055506001600360008473ffffffffffffffffffffffffffffffffffffffff1673ffffffffffffffffffffffffffffffffffffffff1681526020019081526020016000206000828254611a379190613233565b92505081905550816002600083815260200190815260200160002060006101000a81548173ffffffffffffffffffffffffffffffffffffffff021916908373ffffffffffffffffffffffffffffffffffffffff160217905550808273ffffffffffffffffffffffffffffffffffffffff168473ffffffffffffffffffffffffffffffffffffffff167fddf252ad1be2c89b69c2b068fc378daa952ba7f163c4a11628f55a4df523b3ef60405160405180910390a4611af6838383611f8a565b505050565b611b0361159f565b73ffffffffffffffffffffffffffffffffffffffff16611b21610e26565b73ffffffffffffffffffffffffffffffffffffffff1614611b77576040517f08c379a0000000000000000000000000000000000000000000000000000000008152600401611b6e906136c6565b60405180910390fd5b565b6000600760009054906101000a900473ffffffffffffffffffffffffffffffffffffffff16905081600760006101000a81548173ffffffffffffffffffffffffffffffffffffffff021916908373ffffffffffffffffffffffffffffffffffffffff1602179055508173ffffffffffffffffffffffffffffffffffffffff168173ffffffffffffffffffffffffffffffffffffffff167f8be0079c531659141344cd1fd0a4f28419497f9722a3daafe3b4186f6b6457e060405160405180910390a35050565b8173ffffffffffffffffffffffffffffffffffffffff168373ffffffffffffffffffffffffffffffffffffffff161415611cae576040517f08c379a0000000000000000000000000000000000000000000000000000000008152600401611ca590613732565b60405180910390fd5b80600560008573ffffffffffffffffffffffffffffffffffffffff1673ffffffffffffffffffffffffffffffffffffffff16815260200190815260200160002060008473ffffffffffffffffffffffffffffffffffffffff1673ffffffffffffffffffffffffffffffffffffffff16815260200190815260200160002060006101000a81548160ff0219169083151502179055508173ffffffffffffffffffffffffffffffffffffffff168373ffffffffffffffffffffffffffffffffffffffff167f17307eab39ab6107e8899845ad3d59bd9653f200f220920489ca2b5937696c3183604051611d9f9190612658565b60405180910390a3505050565b611db7848484611894565b611dc384848484611f8f565b611e02576040517f08c379a0000000000000000000000000000000000000000000000000000000008152600401611df9906137c4565b60405180910390fd5b50505050565b606060405180602001604052806000815250905090565b6060611e2a82611554565b6000611e34611e08565b90506000815111611e545760405180602001604052806000815250611e7f565b80611e5e84612126565b604051602001611e6f9291906133e3565b6040516020818303038152906040525b915050919050565b60008073ffffffffffffffffffffffffffffffffffffffff166002600084815260200190815260200160002060009054906101000a900473ffffffffffffffffffffffffffffffffffffffff1673ffffffffffffffffffffffffffffffffffffffff1614159050919050565b611f0d828260405180602001604052806000815250612287565b5050565b611f1a82611e87565b611f59576040517f08c379a0000000000000000000000000000000000000000000000000000000008152600401611f5090613856565b60405180910390fd5b80600660008481526020019081526020016000209080519060200190611f80929190612501565b505050565b505050565b505050565b6000611fb08473ffffffffffffffffffffffffffffffffffffffff166122e2565b15612119578373ffffffffffffffffffffffffffffffffffffffff1663150b7a02611fd961159f565b8786866040518563ffffffff1660e01b8152600401611ffb94939291906138cb565b602060405180830381600087803b15801561201557600080fd5b505af192505050801561204657506040513d601f19601f82011682018060405250810190612043919061392c565b60015b6120c9573d8060008114612076576040519150601f19603f3d011682016040523d82523d6000602084013e61207b565b606091505b506000815114156120c1576040517f08c379a00000000000000000000000000000000000000000000000000000000081526004016120b8906137c4565b60405180910390fd5b805181602001fd5b63150b7a0260e01b7bffffffffffffffffffffffffffffffffffffffffffffffffffffffff1916817bffffffffffffffffffffffffffffffffffffffffffffffffffffffff19161491505061211e565b600190505b949350505050565b6060600082141561216e576040518060400160405280600181526020017f30000000000000000000000000000000000000000000000000000000000000008152509050612282565b600082905060005b600082146121a057808061218990613289565b915050600a826121999190613959565b9150612176565b60008167ffffffffffffffff8111156121bc576121bb612888565b5b6040519080825280601f01601f1916602001820160405280156121ee5781602001600182028036833780820191505090505b5090505b6000851461227b576001826122079190613646565b9150600a8561221691906134c8565b60306122229190613233565b60f81b81838151811061223857612237613091565b5b60200101907effffffffffffffffffffffffffffffffffffffffffffffffffffffffffffff1916908160001a905350600a856122749190613959565b94506121f2565b8093505050505b919050565b6122918383612305565b61229e6000848484611f8f565b6122dd576040517f08c379a00000000000000000000000000000000000000000000000000000000081526004016122d4906137c4565b60405180910390fd5b505050565b6000808273ffffffffffffffffffffffffffffffffffffffff163b119050919050565b600073ffffffffffffffffffffffffffffffffffffffff168273ffffffffffffffffffffffffffffffffffffffff161415612375576040517f08c379a000000000000000000000000000000000000000000000000000000000815260040161236c906139d6565b60405180910390fd5b61237e81611e87565b156123be576040517f08c379a00000000000000000000000000000000000000000000000000000000081526004016123b590613a42565b60405180910390fd5b6123ca60008383611f85565b6001600360008473ffffffffffffffffffffffffffffffffffffffff1673ffffffffffffffffffffffffffffffffffffffff168152602001908152602001600020600082825461241a9190613233565b92505081905550816002600083815260200190815260200160002060006101000a81548173ffffffffffffffffffffffffffffffffffffffff021916908373ffffffffffffffffffffffffffffffffffffffff160217905550808273ffffffffffffffffffffffffffffffffffffffff16600073ffffffffffffffffffffffffffffffffffffffff167fddf252ad1be2c89b69c2b068fc378daa952ba7f163c4a11628f55a4df523b3ef60405160405180910390a46124db60008383611f8a565b5050565b6040518060600160405280600390602082028036833780820191505090505090565b82805461250d90612e80565b90600052602060002090601f01602090048101928261252f5760008555612576565b82601f1061254857805160ff1916838001178555612576565b82800160010185558215612576579182015b8281111561257557825182559160200191906001019061255a565b5b5090506125839190612587565b5090565b5b808211156125a0576000816000905550600101612588565b5090565b6000604051905090565b600080fd5b600080fd5b60007fffffffff0000000000000000000000000000000000000000000000000000000082169050919050565b6125ed816125b8565b81146125f857600080fd5b50565b60008135905061260a816125e4565b92915050565b600060208284031215612626576126256125ae565b5b6000612634848285016125fb565b91505092915050565b60008115159050919050565b6126528161263d565b82525050565b600060208201905061266d6000830184612649565b92915050565b600081519050919050565b600082825260208201905092915050565b60005b838110156126ad578082015181840152602081019050612692565b838111156126bc576000848401525b50505050565b6000601f19601f8301169050919050565b60006126de82612673565b6126e8818561267e565b93506126f881856020860161268f565b612701816126c2565b840191505092915050565b6000602082019050818103600083015261272681846126d3565b905092915050565b6000819050919050565b6127418161272e565b811461274c57600080fd5b50565b60008135905061275e81612738565b92915050565b60006020828403121561277a576127796125ae565b5b60006127888482850161274f565b91505092915050565b600073ffffffffffffffffffffffffffffffffffffffff82169050919050565b60006127bc82612791565b9050919050565b6127cc816127b1565b82525050565b60006020820190506127e760008301846127c3565b92915050565b6127f6816127b1565b811461280157600080fd5b50565b600081359050612813816127ed565b92915050565b600080604083850312156128305761282f6125ae565b5b600061283e85828601612804565b925050602061284f8582860161274f565b9150509250929050565b6128628161272e565b82525050565b600060208201905061287d6000830184612859565b92915050565b600080fd5b7f4e487b7100000000000000000000000000000000000000000000000000000000600052604160045260246000fd5b6128c0826126c2565b810181811067ffffffffffffffff821117156128df576128de612888565b5b80604052505050565b60006128f26125a4565b90506128fe82826128b7565b919050565b600067ffffffffffffffff82111561291e5761291d612888565b5b602082029050602081019050919050565b600080fd5b600061294761294284612903565b6128e8565b9050808382526020820190506020840283018581111561296a5761296961292f565b5b835b81811015612993578061297f888261274f565b84526020840193505060208101905061296c565b5050509392505050565b600082601f8301126129b2576129b1612883565b5b81356129c2848260208601612934565b91505092915050565b600080604083850312156129e2576129e16125ae565b5b60006129f08582860161274f565b925050602083013567ffffffffffffffff811115612a1157612a106125b3565b5b612a1d8582860161299d565b9150509250929050565b600080600060608486031215612a4057612a3f6125ae565b5b6000612a4e86828701612804565b9350506020612a5f86828701612804565b9250506040612a708682870161274f565b9150509250925092565b600060039050919050565b600081905092915050565b6000819050919050565b612aa38161272e565b82525050565b6000612ab58383612a9a565b60208301905092915050565b6000602082019050919050565b612ad781612a7a565b612ae18184612a85565b9250612aec82612a90565b8060005b83811015612b1d578151612b048782612aa9565b9650612b0f83612ac1565b925050600181019050612af0565b505050505050565b6000606082019050612b3a6000830184612ace565b92915050565b600060208284031215612b5657612b556125ae565b5b6000612b6484828501612804565b91505092915050565b612b768161263d565b8114612b8157600080fd5b50565b600081359050612b9381612b6d565b92915050565b60008060408385031215612bb057612baf6125ae565b5b6000612bbe85828601612804565b9250506020612bcf85828601612b84565b9150509250929050565b7f4e487b7100000000000000000000000000000000000000000000000000000000600052602160045260246000fd5b60038110612c1957612c18612bd9565b5b50565b6000819050612c2a82612c08565b919050565b6000612c3a82612c1c565b9050919050565b612c4a81612c2f565b82525050565b6000602082019050612c656000830184612c41565b92915050565b600080fd5b600067ffffffffffffffff821115612c8b57612c8a612888565b5b612c94826126c2565b9050602081019050919050565b82818337600083830152505050565b6000612cc3612cbe84612c70565b6128e8565b905082815260208101848484011115612cdf57612cde612c6b565b5b612cea848285612ca1565b509392505050565b600082601f830112612d0757612d06612883565b5b8135612d17848260208601612cb0565b91505092915050565b60008060008060808587031215612d3a57612d396125ae565b5b6000612d4887828801612804565b9450506020612d5987828801612804565b9350506040612d6a8782880161274f565b925050606085013567ffffffffffffffff811115612d8b57612d8a6125b3565b5b612d9787828801612cf2565b91505092959194509250565b6000819050919050565b612db681612da3565b82525050565b6000602082019050612dd16000830184612dad565b92915050565b600063ffffffff82169050919050565b612df081612dd7565b82525050565b6000602082019050612e0b6000830184612de7565b92915050565b60008060408385031215612e2857612e276125ae565b5b6000612e3685828601612804565b9250506020612e4785828601612804565b9150509250929050565b7f4e487b7100000000000000000000000000000000000000000000000000000000600052602260045260246000fd5b60006002820490506001821680612e9857607f821691505b60208210811415612eac57612eab612e51565b5b50919050565b7f4552433732313a20617070726f76616c20746f2063757272656e74206f776e6560008201527f7200000000000000000000000000000000000000000000000000000000000000602082015250565b6000612f0e60218361267e565b9150612f1982612eb2565b604082019050919050565b60006020820190508181036000830152612f3d81612f01565b9050919050565b7f4552433732313a20617070726f76652063616c6c6572206973206e6f7420746f60008201527f6b656e206f776e6572206e6f7220617070726f76656420666f7220616c6c0000602082015250565b6000612fa0603e8361267e565b9150612fab82612f44565b604082019050919050565b60006020820190508181036000830152612fcf81612f93565b9050919050565b6000604082019050612feb60008301856127c3565b612ff860208301846127c3565b9392505050565b7f4552433732313a2063616c6c6572206973206e6f7420746f6b656e206f776e6560008201527f72206e6f7220617070726f766564000000000000000000000000000000000000602082015250565b600061305b602e8361267e565b915061306682612fff565b604082019050919050565b6000602082019050818103600083015261308a8161304e565b9050919050565b7f4e487b7100000000000000000000000000000000000000000000000000000000600052603260045260246000fd5b600081905092915050565b50565b60006130db6000836130c0565b91506130e6826130cb565b600082019050919050565b60006130fc826130ce565b9150819050919050565b7f4552433732313a20696e76616c696420746f6b656e2049440000000000000000600082015250565b600061313c60188361267e565b915061314782613106565b602082019050919050565b6000602082019050818103600083015261316b8161312f565b9050919050565b7f4552433732313a2061646472657373207a65726f206973206e6f74206120766160008201527f6c6964206f776e65720000000000000000000000000000000000000000000000602082015250565b60006131ce60298361267e565b91506131d982613172565b604082019050919050565b600060208201905081810360008301526131fd816131c1565b9050919050565b7f4e487b7100000000000000000000000000000000000000000000000000000000600052601160045260246000fd5b600061323e8261272e565b91506132498361272e565b9250827fffffffffffffffffffffffffffffffffffffffffffffffffffffffffffffffff0382111561327e5761327d613204565b5b828201905092915050565b60006132948261272e565b91507fffffffffffffffffffffffffffffffffffffffffffffffffffffffffffffffff8214156132c7576132c6613204565b5b600182019050919050565b600067ffffffffffffffff82169050919050565b6132ef816132d2565b82525050565b600061ffff82169050919050565b61330c816132f5565b82525050565b600060a0820190506133276000830188612dad565b61333460208301876132e6565b6133416040830186613303565b61334e6060830185612de7565b61335b6080830184612de7565b9695505050505050565b60008151905061337481612738565b92915050565b6000602082840312156133905761338f6125ae565b5b600061339e84828501613365565b91505092915050565b600081905092915050565b60006133bd82612673565b6133c781856133a7565b93506133d781856020860161268f565b80840191505092915050565b60006133ef82856133b2565b91506133fb82846133b2565b91508190509392505050565b7f4f776e61626c653a206e6577206f776e657220697320746865207a65726f206160008201527f6464726573730000000000000000000000000000000000000000000000000000602082015250565b600061346360268361267e565b915061346e82613407565b604082019050919050565b6000602082019050818103600083015261349281613456565b9050919050565b7f4e487b7100000000000000000000000000000000000000000000000000000000600052601260045260246000fd5b60006134d38261272e565b91506134de8361272e565b9250826134ee576134ed613499565b5b828206905092915050565b600060408201905061350e6000830185612c41565b61351b60208301846127c3565b9392505050565b7f4552433732313a207472616e736665722066726f6d20696e636f72726563742060008201527f6f776e6572000000000000000000000000000000000000000000000000000000602082015250565b600061357e60258361267e565b915061358982613522565b604082019050919050565b600060208201905081810360008301526135ad81613571565b9050919050565b7f4552433732313a207472616e7366657220746f20746865207a65726f2061646460008201527f7265737300000000000000000000000000000000000000000000000000000000602082015250565b600061361060248361267e565b915061361b826135b4565b604082019050919050565b6000602082019050818103600083015261363f81613603565b9050919050565b60006136518261272e565b915061365c8361272e565b92508282101561366f5761366e613204565b5b828203905092915050565b7f4f776e61626c653a2063616c6c6572206973206e6f7420746865206f776e6572600082015250565b60006136b060208361267e565b91506136bb8261367a565b602082019050919050565b600060208201905081810360008301526136df816136a3565b9050919050565b7f4552433732313a20617070726f766520746f2063616c6c657200000000000000600082015250565b600061371c60198361267e565b9150613727826136e6565b602082019050919050565b6000602082019050818103600083015261374b8161370f565b9050919050565b7f4552433732313a207472616e7366657220746f206e6f6e20455243373231526560008201527f63656976657220696d706c656d656e7465720000000000000000000000000000602082015250565b60006137ae60328361267e565b91506137b982613752565b604082019050919050565b600060208201905081810360008301526137dd816137a1565b9050919050565b7f45524337323155524953746f726167653a2055524920736574206f66206e6f6e60008201527f6578697374656e7420746f6b656e000000000000000000000000000000000000602082015250565b6000613840602e8361267e565b915061384b826137e4565b604082019050919050565b6000602082019050818103600083015261386f81613833565b9050919050565b600081519050919050565b600082825260208201905092915050565b600061389d82613876565b6138a78185613881565b93506138b781856020860161268f565b6138c0816126c2565b840191505092915050565b60006080820190506138e060008301876127c3565b6138ed60208301866127c3565b6138fa6040830185612859565b818103606083015261390c8184613892565b905095945050505050565b600081519050613926816125e4565b92915050565b600060208284031215613942576139416125ae565b5b600061395084828501613917565b91505092915050565b60006139648261272e565b915061396f8361272e565b92508261397f5761397e613499565b5b828204905092915050565b7f4552433732313a206d696e7420746f20746865207a65726f2061646472657373600082015250565b60006139c060208361267e565b91506139cb8261398a565b602082019050919050565b600060208201905081810360008301526139ef816139b3565b9050919050565b7f4552433732313a20746f6b656e20616c7265616479206d696e74656400000000600082015250565b6000613a2c601c8361267e565b9150613a37826139f6565b602082019050919050565b60006020820190508181036000830152613a5b81613a1f565b905091905056fea264697066735822122017b0295cc4a9589abeccf1c66cb5694bba45f573d334ec4c61151f84767f5b6264736f6c63430008080033",
  "devdoc": {
    "kind": "dev",
    "methods": {
      "approve(address,uint256)": {
        "details": "See {IERC721-approve}."
      },
      "balanceOf(address)": {
        "details": "See {IERC721-balanceOf}."
      },
      "getApproved(uint256)": {
        "details": "See {IERC721-getApproved}."
      },
      "isApprovedForAll(address,address)": {
        "details": "See {IERC721-isApprovedForAll}."
      },
      "name()": {
        "details": "See {IERC721Metadata-name}."
      },
      "owner()": {
        "details": "Returns the address of the current owner."
      },
      "ownerOf(uint256)": {
        "details": "See {IERC721-ownerOf}."
      },
      "renounceOwnership()": {
        "details": "Leaves the contract without owner. It will not be possible to call `onlyOwner` functions anymore. Can only be called by the current owner. NOTE: Renouncing ownership will leave the contract without an owner, thereby removing any functionality that is only available to the owner."
      },
      "safeTransferFrom(address,address,uint256)": {
        "details": "See {IERC721-safeTransferFrom}."
      },
      "safeTransferFrom(address,address,uint256,bytes)": {
        "details": "See {IERC721-safeTransferFrom}."
      },
      "setApprovalForAll(address,bool)": {
        "details": "See {IERC721-setApprovalForAll}."
      },
      "supportsInterface(bytes4)": {
        "details": "See {IERC165-supportsInterface}."
      },
      "symbol()": {
        "details": "See {IERC721Metadata-symbol}."
      },
      "tokenURI(uint256)": {
        "details": "See {IERC721Metadata-tokenURI}."
      },
      "transferFrom(address,address,uint256)": {
        "details": "See {IERC721-transferFrom}."
      },
      "transferOwnership(address)": {
        "details": "Transfers ownership of the contract to a new account (`newOwner`). Can only be called by the current owner."
      }
    },
    "version": 1
  },
  "userdoc": {
    "kind": "user",
    "methods": {},
    "version": 1
  },
  "storageLayout": {
    "storage": [
      {
        "astId": 285,
        "contract": "contracts/RandomIpfsNft.sol:RandomIpfsNft",
        "label": "_name",
        "offset": 0,
        "slot": "0",
        "type": "t_string_storage"
      },
      {
        "astId": 287,
        "contract": "contracts/RandomIpfsNft.sol:RandomIpfsNft",
        "label": "_symbol",
        "offset": 0,
        "slot": "1",
        "type": "t_string_storage"
      },
      {
        "astId": 291,
        "contract": "contracts/RandomIpfsNft.sol:RandomIpfsNft",
        "label": "_owners",
        "offset": 0,
        "slot": "2",
        "type": "t_mapping(t_uint256,t_address)"
      },
      {
        "astId": 295,
        "contract": "contracts/RandomIpfsNft.sol:RandomIpfsNft",
        "label": "_balances",
        "offset": 0,
        "slot": "3",
        "type": "t_mapping(t_address,t_uint256)"
      },
      {
        "astId": 299,
        "contract": "contracts/RandomIpfsNft.sol:RandomIpfsNft",
        "label": "_tokenApprovals",
        "offset": 0,
        "slot": "4",
        "type": "t_mapping(t_uint256,t_address)"
      },
      {
        "astId": 305,
        "contract": "contracts/RandomIpfsNft.sol:RandomIpfsNft",
        "label": "_operatorApprovals",
        "offset": 0,
        "slot": "5",
        "type": "t_mapping(t_address,t_mapping(t_address,t_bool))"
      },
      {
        "astId": 1273,
        "contract": "contracts/RandomIpfsNft.sol:RandomIpfsNft",
        "label": "_tokenURIs",
        "offset": 0,
        "slot": "6",
        "type": "t_mapping(t_uint256,t_string_storage)"
      },
      {
        "astId": 154,
        "contract": "contracts/RandomIpfsNft.sol:RandomIpfsNft",
        "label": "_owner",
        "offset": 0,
        "slot": "7",
        "type": "t_address"
      },
      {
        "astId": 2032,
        "contract": "contracts/RandomIpfsNft.sol:RandomIpfsNft",
        "label": "s_requestIdToSender",
        "offset": 0,
        "slot": "8",
        "type": "t_mapping(t_uint256,t_address)"
      },
      {
        "astId": 2034,
        "contract": "contracts/RandomIpfsNft.sol:RandomIpfsNft",
        "label": "s_tokenCounter",
        "offset": 0,
        "slot": "9",
        "type": "t_uint256"
      },
      {
        "astId": 2040,
        "contract": "contracts/RandomIpfsNft.sol:RandomIpfsNft",
        "label": "i_dogTokenUris",
        "offset": 0,
        "slot": "10",
        "type": "t_array(t_string_storage)dyn_storage"
      }
    ],
    "types": {
      "t_address": {
        "encoding": "inplace",
        "label": "address",
        "numberOfBytes": "20"
      },
      "t_array(t_string_storage)dyn_storage": {
        "base": "t_string_storage",
        "encoding": "dynamic_array",
        "label": "string[]",
        "numberOfBytes": "32"
      },
      "t_bool": {
        "encoding": "inplace",
        "label": "bool",
        "numberOfBytes": "1"
      },
      "t_mapping(t_address,t_bool)": {
        "encoding": "mapping",
        "key": "t_address",
        "label": "mapping(address => bool)",
        "numberOfBytes": "32",
        "value": "t_bool"
      },
      "t_mapping(t_address,t_mapping(t_address,t_bool))": {
        "encoding": "mapping",
        "key": "t_address",
        "label": "mapping(address => mapping(address => bool))",
        "numberOfBytes": "32",
        "value": "t_mapping(t_address,t_bool)"
      },
      "t_mapping(t_address,t_uint256)": {
        "encoding": "mapping",
        "key": "t_address",
        "label": "mapping(address => uint256)",
        "numberOfBytes": "32",
        "value": "t_uint256"
      },
      "t_mapping(t_uint256,t_address)": {
        "encoding": "mapping",
        "key": "t_uint256",
        "label": "mapping(uint256 => address)",
        "numberOfBytes": "32",
        "value": "t_address"
      },
      "t_mapping(t_uint256,t_string_storage)": {
        "encoding": "mapping",
        "key": "t_uint256",
        "label": "mapping(uint256 => string)",
        "numberOfBytes": "32",
        "value": "t_string_storage"
      },
      "t_string_storage": {
        "encoding": "bytes",
        "label": "string",
        "numberOfBytes": "32"
      },
      "t_uint256": {
        "encoding": "inplace",
        "label": "uint256",
        "numberOfBytes": "32"
      }
    }
  }
}